:020000040800F2
:10000000002800205D3A0008A3370008AB3700083D
:10001000B3370008BB370008C337000800000000F2
:10002000000000000000000000000000CB370008C6
:10003000D737000800000000E3370008EF3700085A
:10004000A53A0008A53A0008A53A0008A53A000814
:10005000A53A0008A53A0008A53A0008A53A000804
:10006000A53A0008A53A0008A53A0008A53A0008F4
:10007000A53A0008A53A0008A53A0008A53A0008E4
:10008000A53A0008A53A0008A53A0008A53A0008D4
:10009000A53A0008A53A0008A53A0008A53A0008C4
:1000A000A53A0008A53A0008A53A0008A53A0008B4
:1000B000FD370008A53A000800000000A53A000836
:1000C000A53A00080000000000000000A53A000862
:1000D00000000000A53A0008A53A00080000000052
:1000E000A53A0008A53A0008A53A0008000000005B
:1000F0000000000000000000000000000000000000
:0C01000000000000000000005FF808F1A3
:10010C000348044B834202D0034B03B1184770479A
:10011C006C0000206C000020000000000548064B1D
:10012C001B1AD90F01EBA301491002D0034B03B1E9
:10013C00184770476C0000206C0000200000000085
:10014C0010B5064C237843B9FFF7DAFF044B13B113
:10015C000448AFF300800123237010BD6C00002015
:10016C0000000000083E000808B5044B1BB1044910
:10017C000448AFF30080BDE80840CFE70000000062
:10018C0070000020083E000870B50F4B0F4DAB42BD
:10019C00A3EB050607D00024B61055F8043B013438
:1001AC009847A642F9D803F029FE094D094B5E1B6E
:1001BC00AB424FEAA60606D0002455F8043B0134A6
:1001CC009847A642F9D870BDF03E0008F03E0008F2
:1001DC00F03E0008F43E000870B5860747D0541E68
:1001EC00002A3ED00346CAB201E0013C39D303F8E1
:1001FC00012B9D07F9D1032C2CD9CDB205EB05258C
:10020C000F2C1A4605EB054534D9A4F1100C2CF033
:10021C000F0603F1100EB6444FEA1C1CC2E9005540
:10022C00C2E9025510327245F8D10CF1010214F0FA
:10023C000C0F03EB021204F00F0C13D0ACF10403FF
:10024C0023F003030433134442F8045B9342FBD1C1
:10025C000CF003042CB1C9B21C4403F8011BA342DB
:10026C00FBD170BD64461346002CF4D1F9E703466C
:10027C001446C0E7A446E1E7014B1868704700BF7D
:10028C00000000200EB400B582B003AB53F8042B71
:10029C008168019300F056F802B05DF804EB03B0EE
:1002AC00704700BF0FB400B5074A83B004AB1068A9
:1002BC0053F8042B8168019300F044F803B05DF807
:1002CC0004EB04B0704700BF000000209368013BB2
:1002DC00002B936005DAD2F818C0634507DB0A29B6
:1002EC0005D01368581C106008461970704700F050
:1002FC0063B900BF9BB1F8B5134406460F46541EB4
:10030C005D1E01E0AC4208D03A46304614F8011F9D
:10031C00FFF7DCFF431CF5D1F8BD0020F8BD002031
:10032C00704700BF936810B514461BB918460023DC
:10033C00636010BD00F08EF90023A360002363609E
:10034C0010BD00BF2DE9F04FA1B08B4691461C4665
:10035C00049018B1036A002B00F01381BBF80C3029
:10036C00180740F18E80DBF81030002B00F08980EC
:10037C00002343F220020D9399F800300127824E9E
:10038C000794ADF83920002B73D04D4603E015F8D7
:10039C00013F002B7FD0252BF9D1B5EB090A7DD17C
:1003AC002B78002B65D000234FF0FF320135CDE9BF
:1003BC00092308930B938DF863301E9306E02546B2
:1003CC00089B801B07FA00F0034308932C46052278
:1003DC0014F8011B304601F09FF9A1460028EED11C
:1003EC00089BD90644BF20228DF863201A0748BF0A
:1003FC002B22297848BF8DF863202A2964D1079ACB
:10040C001168043200290792C0F296800B9169782A
:10041C002E296FD05D4C0322204601F07DF938B1B6
:10042C004022089B001B8240134309F101090893E9
:10043C0019F8011B062256488DF8381001F06CF99A
:10044C0000287FD0534B002B69D007A900915A4646
:10045C000498514B08A9AFF300800390039B013320
:10046C0007D00D9B039A13440D9399F80030002B81
:10047C008BD1BBF80C305B060AD40D9821B0BDE8CB
:10048C00F08F5946049800F0DDFD00283FF470AF62
:10049C004FF0FF30F2E7B5EB090AEAD009F1FF386B
:1004AC0005954546DDF8108001E0A2453ED92C4665
:1004BC005A46404615F8011FFFF708FF0234013079
:1004CC00A4EB0904F1D1D4E7A1F13002092A88BFC9
:1004DC00A9469DD80B9B00E00134217803EB8303E4
:1004EC0002EB4303A1F13002092AF5D92E29A146CA
:1004FC000B938FD199F801102A292DD1079B09F163
:10050C0002001A680433002A0793B8BF4FF0FF3378
:10051C0099F8021009928146B8BF09937AE7079BB4
:10052C00073323F00703083307939AE70D99059DCA
:10053C0051442B780D9134E7494243F002030B915F
:10054C00089364E707A900915A460498124B08A92E
:10055C0000F014FF039081E70023A1F13002092A77
:10056C0009F1010909933FF655AF19F8011F03EB87
:10057C00830302EB4303A1F13002092AF5D9099355
:10058C0048E700F0C7FAE9E6AC3E0008B43E0008C4
:10059C00B83E000800000000010300088C4600B5BE
:1005AC0086461346034A714610685DF804EB6246B2
:1005BC00FFF7C8BE00000020F8B506460D461446ED
:1005CC0010B1036A002B37D0A269A389A2601A0765
:1005DC0019D52369BBB122686169D31AEDB299426E
:1005EC002F4620DD0133A1680139A160511C216027
:1005FC00157062699A420DD0A389DB0701D50A2DCB
:10060C0008D03846F8BD2146304600F01BFD38B9FD
:10061C002369E0E72146304600F02EFB0028F0D09D
:10062C004FF0FF37EDE72146304600F025FB002860
:10063C00F6D101232268D6E700F06CFAC4E700BFBC
:10064C0003460A46024908681946FFF7B5BF00BFC2
:10065C00000000209368002B00F0F0802DE9F04F93
:10066C00B1F90CC090461CF0080F81460C4683B0C3
:10067C002BD00B694BB31CF00207D8F8006032D0BA
:10068C004FF0000A5546D4F828B0216AAB4FC5B1DB
:10069C00BD422B46524628BF3B464846D847002809
:1006AC0040F3C280D8F8083082441B1A2D1AC8F8BF
:1006BC000830002B00F0AE80D4F828B0216A002D51
:1006CC00E6D1D6E900A50836E1E72146484600F018
:1006DC00B9FC002840F0AD80B4F90CC0D8F800602B
:1006EC001CF00207CCD11CF0010A63D157462368D9
:1006FC00A16818468B46002F58D01CF4007F00F0E0
:10070C00B180B9420A4600F2DD801CF4906F2FD004
:10071C00216962695D1A02EB420202EBD2726B1C18
:10072C0052103B44934292BF93469B461A461CF48C
:10073C00806F00F0E6801146484600F005FB00286B
:10074C0000F0F5802A462169019000F0DDFCA289B9
:10075C00019B22F4906242F08002A2815819C4F8E5
:10076C0014B0ABEB05053A46BB462361A56020608F
:10077C003D4600275146019200F0C4FBA168236856
:10078C00019AA1EB0B011A44A1602260D8F8083041
:10079C00AA445B1BC8F80830002B3BD02368A16827
:1007AC0018468B46B4F90CC0002FA6D1D6E900A789
:1007BC0008369EE73846BB463D46002D40D0002803
:1007CC0045D03A46D4E904C32068AA4228BF2A4639
:1007DC006045A16804D901EB030A524500F38280FD
:1007EC00934272DC5A464846216AD4F828C0E04746
:1007FC00B0F1000A18DDB7EB0A070FD00120D8F8CA
:10080C000830D344A3EB0A03A5EB0A05C8F808305B
:10081C00002BD2D1002003B0BDE8F08F2146484612
:10082C0000F02AFA0028EAD0B4F90C3043F0400367
:10083C00A3814FF0FF3003B0BDE8F08F002070476C
:10084C00756833460836002DFAD0D3F800B02A4626
:10085C000A21584600F060FF002865D00130A0EB5B
:10086C000B07AEE722699A4214D36569BD4211D8D1
:10087C006FF00043BB4228BF3B4693FBF5F3524657
:10088C0005FB03F34846A56A216AA847051ECBDD84
:10089C007F1B7BE7B94228BF39460D4618465146A7
:1008AC002A4600F02FFBA1682368491B2B44A1604A
:1008BC0023600029ECD12146484600F0DDF90028E0
:1008CC00E6D0B1E7BB463A4652E75946019200F0F2
:1008DC0019FB019AA36892469B1AA36023681344E0
:1008EC00236088E75946524600F00CFB23682146EA
:1008FC0053444846236000F0BFF900283FF47BAF17
:10090C0092E7484600F076FC034600287FF426AFB9
:10091C004846216900F098FA0C22B4F90C30C9F859
:10092C00002023F0800381E76A1C17464AE70C225B
:10093C00B4F90C30C9F8002078E700BF00FCFF7F49
:10094C0000207047024A0349034800F059BB00BF1E
:10095C0050000020850C0008040000200C4B41685E
:10096C0010B59942044601D000F086F9A168094BF4
:10097C00994202D0204600F07FF9E168064B99427B
:10098C0004D02046BDE8104000F076B910BD00BF81
:10099C0088000020F0000020580100200020704743
:1009AC002DE9F84300250423294C2A490822C4F8D0
:1009BC00381104F15C002946DFF89C90DFF89C802C
:1009CC00274F284EC4E90335C4E90055C4E9055541
:1009DC00A5606566FFF700FC234B0822294604F14D
:1009EC00C4006367C4E90849C4E90A87C4E91A5515
:1009FC00C4E91E5526632567C4F8CC50C4F8805052
:100A0C00FFF7EAFB194B2946C4F8DC30082204F145
:100A1C00680304F59670C4F88830C4E92398C4E9D7
:100A2C002576C4E93455C4E93855C4F8D850C4F80F
:100A3C003451C4F8E850FFF7CFFB04F1D003C4E9FC
:100A4C003D98C4E93F76C4F8F030BDE8F88300BFA8
:100A5C008800002051090008051800082D1800080E
:100A6C006D1800089118000809000100120002001E
:100A7C00F8B5254B0646D3F83831002B3CD0234F24
:100A8C00D7E90134013B04D51DE05A1C04F168047C
:100A9C0019D0B4F90C50013B002DF6D11C4B082297
:100AAC002946C4E90155C4E90455E360656625602F
:100ABC00A56104F15C00FFF78FFBC4E90D55C4E997
:100ACC0012552046F8BD3D680DB12F46D8E74FF4BE
:100ADC00D671304600F038F9044680B10423056025
:100AEC00294625460C304FF4D072A0606360FFF7A6
:100AFC0073FB3C602F46C3E7FFF752FFBFE70C23A5
:100B0C0038603360DDE700BF880000205000002013
:100B1C000100FFFF036A03B17047044B044AD3F88A
:100B2C0038310262002BF7D13AE700BF8800002071
:100B3C0069090008704700BF704700BF0020024AD7
:100B4C00024900F05DBA00BF500000204D090008BA
:100B5C000020024A024900F053BA00BF50000020A6
:100B6C00A9090008F8B5B1F90C300C461E07074668
:100B7C0039D44A68002A53DDE56A002D31D00022B1
:100B8C003E683A6013F48052216A55D101233846ED
:100B9C00A847451C024663D0B4F90C30E56A216ABB
:100BAC00580705D56368D21A636B0BB1236CD21A44
:100BBC0000233846A847421C40D0002223696260BB
:100BCC002360A389DB0400D56065616B3E6041B195
:100BDC0004F14403994202D0384600F035F9002361
:100BEC0063630020F8BD0E69002EFAD09B0718BF76
:100BFC0000230D6808BF4B690E60AD1B8B600CE0C9
:100C0C002B463246D4F828C03846216AE047B0F16A
:100C1C00000CA5EB0C05664406DD002DF0DCE0E7CE
:100C2C000A6C002AA8DCDCE7B4F90C3043F0400372
:100C3C004FF0FF30A381F8BD626DB1E73968B4F9AC
:100C4C000C301D29F2D80B4ACA40D507EED500222C
:100C5C00626022692260DA04B7D50029B4D0B4E707
:100C6C003B68002B98D01D2B01D0162BDCD13E609D
:100C7C00B7E700BF010040200B69B3B110B50446C3
:100C8C0082B008B1036A5BB1B1F90C3013B9002022
:100C9C0002B010BD204602B0BDE81040FFF762BFA5
:100CAC000191FFF737FF0199EEE70020704700BF75
:100CBC00B8B138B50D4A0369044615682BB10DB1AE
:100CCC002B6A53B1B4F90C300BB9002038BD214656
:100CDC002846BDE83840FFF745BF2846FFF71AFF06
:100CEC00F0E7034A0349044800F08AB900000020E9
:100CFC0050000020850C00080400002070B5114E37
:100D0C00054633680C46BBB12146284600F062FD0F
:100D1C00431C01460CD0C41C24F00304A04205D093
:100D2C002846611A00F056FD013001D0204670BDF6
:100D3C004FF0FF34204670BD194600F04BFD30607B
:100D4C00E2E700BFC40100202DE9F843CD1C25F0DB
:100D5C00030508350C2D38BF0C25002D064618DB75
:100D6C00A94216D8DFF8DC8000F04AFCD8F8042041
:100D7C00A2B1144603E0636822467BB11C4623688B
:100D8C005B1BF8D40B2B1FD89442636854D0536070
:100D9C000CE00C2333600020BDE8F8832946304674
:100DAC00FFF7ACFF431C044619D00560304600F039
:100DBC0029FC04F10B00231D20F00700C21A1CBFF4
:100DCC001B1AA350BDE8F88361199442256014BF27
:100DDC005160C8F80410635163684B60E6E7D8F8BB
:100DEC0004701FB33C467F68002FFBD12368394643
:100DFC00304604EB030900F0EDFC814516D1236865
:100E0C003046ED1A2946FFF779FF01300ED02368E2
:100E1C00D8F804202B442360536883B1A34203D039
:100E2C001A465B689C42FBD10023B0E70C2330468A
:100E3C00336000F0E7FBAEE7C8F80430B6E7C8F85B
:100E4C000470B3E7C4010020002950D038B551F824
:100E5C00043C0C1F002BB8BFE418054600F0D0FB77
:100E6C00274A13682BB1A3420CD92168601883421E
:100E7C002CD0284663601460BDE8384000F0C2BB3B
:100E8C00A3420FD81A465B68002BF9D11168501891
:100E9C00844217D02CD3636054602846BDE8384098
:100EAC0000F0B0BB11685018A04214D020D82168B3
:100EBC0060188342EFD118685B680844C4E90003EA
:100ECC005460EAE723680B441360E6E718685B6834
:100EDC0008442060CDE7206801445018834211601B
:100EEC00DBD1D3E900040144C2E90014D5E7704713
:100EFC000C2328462B60BDE8384000F083BB00BFB4
:100F0C00C801002088420ED98B1883420BD900EB04
:100F1C00020C002A6DD0624613F801CD994202F8FA
:100F2C0001CDF9D170470F2A0FD8034602F1FF3CCF
:100F3C00002A5ED00CF1010C013B8C4411F8012B02
:100F4C00614503F8012FF9D1704740EA01039B0773
:100F5C0050D1A2F1100370B501F1200C23F00F0554
:100F6C0001F1100E00F11004AC441B095EF8105C8A
:100F7C000EF1100E44F8105C5EF81C5C103444F852
:100F8C001C5C5EF8185C44F8185C5EF8145CE64572
:100F9C0044F8145CEAD1013312F00C0F01EB03118D
:100FAC0002F00F0400EB031328D08E46043C24F00F
:100FBC0003064FEA940C1E441C1F5EF8045B44F8B5
:100FCC00045FB442F9D10CF1010402F0030203EB0B
:100FDC00840301EB840102F1FF3C4AB10CF1010CDA
:100FEC00013B8C4411F8012B614503F8012FF9D119
:100FFC0070BD7047034602F1FF3C9BE72246EAE7CF
:10100C002DE9F8434FF0000980460F461646D6E905
:10101C000154013D10D4A389012B08D9B4F90E3029
:10102C00013304D021464046B84749EA0009013D46
:10103C006B1C04F16804EED13668002EE7D14846EB
:10104C00BDE8F88338B52F4B05461B680C4613B129
:10105C001A6A002A4BD0B4F90C3018071CD5226937
:10106C0022B313F0010107D000206169A06049424E
:10107C00A1613AB1002038BD980758BF6169A160E1
:10108C00002AF7D1190658BF1046F4D543F0400397
:10109C00A3814FF0FF3038BDD9062CD55A0712D496
:1010AC00226943F00803A381002ADAD103F42071EA
:1010BC00B1F5007FD5D02146284600F0A5FAB4F949
:1010CC000C302269CDE7616B51B104F144029142BD
:1010DC0004D02846FFF7B8FEB4F90C300022626346
:1010EC000021226923F02403C4E90021D9E7184622
:1010FC00FFF710FDAFE7092243F040032A60A381FC
:10110C00C7E700BF00000020844641EA000313F04B
:10111C00030349D1403A23D30B6803604B68436007
:10112C008B688360CB68C3600B6903614B69436157
:10113C008B698361CB69C3610B6A03624B6A43623F
:10114C008B6A8362CB6AC3620B6B03634B6B436327
:10115C008B6B8363CB6BC36340304031403ADBD243
:10116C0030320BD30B6803604B6843608B68836031
:10117C00CB68C36010301031103AF3D20C3205D367
:10118C0051F8043B40F8043B043AF9D2043208D03D
:10119C00D2071CBF11F8013B00F8013B01D30B88AF
:1011AC0003806046704700BF082A13D38B07B1D069
:1011BC0010F00303AED0C3F10403D21ADB071CBF3B
:1011CC0011F8013B00F8013BA4D331F8023B20F8A5
:1011DC00023B9FE7043AD9D3013A11F8013B00F8DE
:1011EC00013BF9D20B7803704B7843708B7883708A
:1011FC00604670472DE9F041144641B30AB30646E8
:10120C000D4600F043FB8442074602D8B4EB500F66
:10121C0013D821463046FFF797FD804650B1BC42AB
:10122C002246294628BF3A46FFF76EFF294630462C
:10123C00FFF70AFE4046BDE8F081A8464046BDE8EF
:10124C00F081A046FFF700FE4046BDE8F081114654
:10125C00BDE8F041FFF778BD2DE9F84F92461F46E7
:10126C000A698B680C469A42B8BF1A46CAF8002025
:10127C0091F843300646DDF8289013B10132CAF8D4
:10128C000020226891065FD5DAF800300233CAF8E4
:10129C000030226812F0060F11461DD1E168994208
:1012AC00D8BF114618DD4FF0000804F1190B05E00A
:1012BC00E568DAF80030ED1A45450CDD01235A4695
:1012CC0039463046C847013008F10108F0D14FF0DB
:1012DC00FF30BDE8F88F216894F84330003B18BF0D
:1012EC0001238A060AD53021E21882F8431094F8BB
:1012FC0045105A1C2244023382F8431039463046BA
:10130C0004F14302C8470130E1D0D4E9022023683C
:10131C00DAF8005003F00603042B21691BD08A4233
:10132C0020DD4FF00008521A904400251A3401E0D9
:10133C00454517DA0123224639463046C847013065
:10134C0005F10105F4D1C2E712F0060F0DD0003BF8
:10135C0018BF0123D2E7401B8A4220EAE078E2DC86
:10136C000028E2DC0020BDE8F88FE168DAF80030F4
:10137C009942D8BF114696DCAEE700BF2DE9F04785
:10138C0017460A7E84B00C46064698460C9D01F121
:10139C00430C002A35D0A2F15803D9B2202969D8C0
:1013AC00202B67D8DFE813F0E600660066006600C5
:1013BC006600660066006600660066006600AC00AB
:1013CC0070006600660066006600700066006600CD
:1013DC006600660021008300C60066006600B60049
:1013EC006600830066006600EC002B682268181DFE
:1013FC006169286010061B6802D4520600F1E08077
:10140C0019600023E14623613B4621463046CDF866
:10141C00008003AAFFF720FF013020D04A4639464E
:10142C0030462369C047013019D02368E0689B0718
:10143C00DDF80C9018D5484516DD002504F1190A85
:10144C0004E0E068A0EB0903AB420DDD012352463A
:10145C0039463046C047013005F10105F1D14FF056
:10146C00FF3004B0BDE8F0874845B8BF484604B02B
:10147C00BDE8F087012084F8422004F142090023E2
:10148C00206184F84330BFE72A682368111D1806D1
:10149C00296002D4590600F1958010680146002895
:1014AC006268C0F293804FF00A0E534815E0206832
:1014BC002B6810F0800F53F8041B02D1400648BF74
:1014CC0089B26F2A14BF4FF00A0E4FF0080E4A482B
:1014DC002B600023626884F84330002AA26051DB41
:1014EC00236823F00403236000294BD1002A7BD10D
:1014FC00E146BEF1080F56D0ACEB0903236183E73C
:10150C002A680120116804322A6004F1420984F827
:10151C004210B4E72B6800211A1D2A60D3F8009002
:10152C006268484600F0F8F8002863D0A0EB090088
:10153C006060A4E7236843F02003236078222F48DF
:10154C0084F845202A6813F0800F52F8041B03D14D
:10155C0013F0400F18BF89B22A60DA0744BF43F07A
:10156C002003236019B9236823F0200323604FF074
:10157C00100EAEE75823204884F845302368E1E785
:10158C002368DBE77546E146B1FBF5F30A4605FB3C
:10159C00131A194610F80A30AA4209F8013DF3D281
:1015AC00BEF1080FA8D12368DD07A5D562682369B1
:1015BC009A42A1DC302309F1FF3989F800309BE70E
:1015CC0019801EE7B2F90010084668E72D20002AA2
:1015DC00A26084F8430002DB23F0040323600A2595
:1015EC000548AE464942CEE7037804F1420984F837
:1015FC0042307EE7606842E7C03E0008D43E0008F7
:10160C00704700BF704700BF70B5B1F90C300C4685
:10161C00990796B007D5012204F14703C4E90432B7
:10162C00236016B070BDB4F90E100546002929DBF5
:10163C006A4600F05BF9002822DB4FF480612846F3
:10164C00019EFFF781FB88B3A38906F4704643F033
:10165C008003A3814FF48063B6F5005FC4E90403F3
:10166C002060DED12846B4F90E1000F0A1F8002855
:10167C00D7D0A38923F0030343F00103A381D0E760
:10168C00B4F90C3013F0800F14BF40264FF4806671
:10169C0028463146FFF758FB40B1A389C4E904063C
:1016AC0043F080032060A38116B070BDB4F90C30F8
:1016BC009A05B6D4012123F0030304F1470243F049
:1016CC000203C4E90421A3812260AAE770B50C4689
:1016DC00B1F90E10154600291E4696B00FDB6A466E
:1016EC0000F004F900280ADB019B4FF4806203F43C
:1016FC007043A3F50053B3FA83F35B0907E0A289A7
:10170C00002312F0800F14BF40224FF4806200209F
:10171C0033602A6016B070BD5FFA81FC810744D03B
:10172C000346511E22B909E09A0709D0013905D3A5
:10173C001846027801336245F6D170470020704795
:10174C00184603290CD80029F8D00346014401E0BF
:10175C008B42F3D0184613F8012B6245F8D1704731
:10176C0010B50CEB0C24024604EB044402E00439E3
:10177C00032915D9104652F8043B6340A3F1013EEE
:10178C002EEA030313F0803FF1D00346014401E03D
:10179C008B4208D0184613F8012B6245F8D110BDC6
:1017AC0010460029F1D1002010BD1146C9E700BF39
:1017BC00002238B5064D044608462A6002F031F97D
:1017CC00431C00D038BD2B68002BFBD0236038BDE8
:1017DC00CC010020002238B5064D044608462A608C
:1017EC0002F0B2F8431C00D038BD2B68002BFBD0A4
:1017FC00236038BDCC01002010B50C46B1F90E1099
:10180C0000F05EF8002803DB636D0344636510BDD4
:10181C00A38923F48053A38110BD00BF002070471F
:10182C002DE9F0410C46B1F90C101F46CB050546CD
:10183C0016460BD421F48051A1813B4632462846F2
:10184C00B4F90E10BDE8F04100F07AB8B4F90E10FE
:10185C000223002200F05EF8B4F90C10EAE700BF96
:10186C0010B50C46B1F90E1000F054F8B4F90C3068
:10187C00421C0EBF23F4805343F480536065A38154
:10188C0010BD00BFB1F90E1000F008B851F8043CBF
:10189C00181F002BBCBF0B58C0187047002238B55E
:1018AC00064D044608462A6002F0A1F8431C00D0FD
:1018BC0038BD2B68002BFBD0236038BDCC01002039
:1018CC0038B50C46114600228446074D20462A6046
:1018DC001A46644602F06EF8431C00D038BD2B68E3
:1018EC00002BFBD0236038BDCC01002070B5002646
:1018FC00074D0446084611462E6002F083F8431C3F
:10190C0000D070BD2B68002BFBD0236070BD00BFD6
:10191C00CC01002038B50C46114600228446074DF8
:10192C0020462A601A46644602F085F8431C00D013
:10193C0038BD2B68002BFBD0236038BDCC010020B8
:10194C0038B50C46114600228446074D20462A60C5
:10195C001A46644601F03EFD431C00D038BD2B688E
:10196C00002BFBD0236038BDCC01002080B400AF2D
:10197C0000BFBD4680BC704780B582B000AF7860B8
:10198C007B68002B01D1012341E07B6893F83D304B
:10199C00DBB2002B06D17B68002283F83C207868F0
:1019AC0001F062FF7B68022283F83D207B681A6895
:1019BC007B6804331946104600F056FA7B68012206
:1019CC0083F846207B68012283F83E207B68012245
:1019DC0083F83F207B68012283F840207B6801223A
:1019EC0083F841207B68012283F842207B68012226
:1019FC0083F843207B68012283F844207B68012212
:101A0C0083F845207B68012283F83D20002318468B
:101A1C000837BD4680BD000080B485B000AF78604B
:101A2C007B6893F83D30DBB2012B01D0012335E00C
:101A3C007B68022283F83D207B681B68DA687B6830
:101A4C001B6842F00102DA607B681B68164A9342FD
:101A5C0009D07B681B68B3F1804F04D07B681B688E
:101A6C00124A934211D17B681B689B6803F00703F1
:101A7C00FB60FB68062B10D07B681B681A687B68C0
:101A8C001B6842F001021A6007E07B681B681A6849
:101A9C007B681B6842F001021A6000231846143759
:101AAC00BD4680BC704700BF002C014000040040C4
:101ABC0080B584B000AF78607B681B68DB68FB6026
:101ACC007B681B681B69BB60BB6803F00203002BBF
:101ADC0020D0FB6803F00203002B1BD07B681B6833
:101AEC006FF002021A617B6801221A777B681B680F
:101AFC009B6903F00303002B03D0786800F098F97E
:101B0C0005E0786800F08BF9786800F09AF97B684A
:101B1C0000221A77BB6803F00403002B20D0FB686B
:101B2C0003F00403002B1BD07B681B686FF00402CE
:101B3C001A617B6802221A777B681B689B6903F425
:101B4C004073002B03D0786800F072F905E07868D8
:101B5C0000F065F9786800F074F97B6800221A7758
:101B6C00BB6803F00803002B20D0FB6803F00803CC
:101B7C00002B1BD07B681B686FF008021A617B6816
:101B8C0004221A777B681B68DB6903F00303002BC4
:101B9C0003D0786800F04CF905E0786800F03FF964
:101BAC00786800F04EF97B6800221A77BB6803F066
:101BBC001003002B20D0FB6803F01003002B1BD06C
:101BCC007B681B686FF010021A617B6808221A7719
:101BDC007B681B68DB6903F44073002B03D07868C7
:101BEC0000F026F905E0786800F019F9786800F043
:101BFC0028F97B6800221A77BB6803F00103002BDD
:101C0C000CD0FB6803F00103002B07D07B681B682A
:101C1C006FF001021A61786801F0A8FDBB6803F04F
:101C2C008003002B0CD0FB6803F08003002B07D043
:101C3C007B681B686FF080021A61786800F06FFA9D
:101C4C00BB6803F04003002B0CD0FB6803F040038F
:101C5C00002B07D07B681B686FF040021A61786814
:101C6C0000F0F8F8BB6803F02003002B0CD0FB68E5
:101C7C0003F02003002B07D07B681B686FF0200259
:101C8C001A61786800F042FA00BF1037BD4680BD7B
:101C9C0080B584B000AF786039600023FB737B683B
:101CAC0093F83C30012B01D10223B4E07B68012274
:101CBC0083F83C207B68022283F83D207B681B68FC
:101CCC009B68BB60BB6823F07703BB60BB6823F4E5
:101CDC007F43BB607B681B68BA689A603B681B6873
:101CEC00B3F5005F3ED0B3F5005F00F28780B3F52B
:101CFC00805F00F08680B3F5805F7FD8702B1AD0A0
:101D0C00702B7BD8602B50D0602B77D8502B3CD0CD
:101D1C00502B73D8402B58D0402B6FD8302B64D01D
:101D2C00302B6BD8202B60D0202B67D8002B5CD0AD
:101D3C00102B5AD062E07B6818683B6899683B6846
:101D4C005A683B68DB6800F06AF97B681B689B6823
:101D5C00BB60BB6843F07703BB607B681B68BA68E9
:101D6C009A604FE07B6818683B6899683B685A68D2
:101D7C003B68DB6800F053F97B681B689A687B68EA
:101D8C001B6842F480429A603CE07B6818683B68B0
:101D9C0059683B68DB681A4600F0CAF87B681B6818
:101DAC005021184600F021F92CE07B6818683B683C
:101DBC0059683B68DB681A4600F0E8F87B681B68DA
:101DCC006021184600F011F91CE07B6818683B682C
:101DDC0059683B68DB681A4600F0AAF87B681B68F8
:101DEC004021184600F001F90CE07B681A683B684A
:101DFC001B681946104600F0F8F803E00123FB734A
:101E0C0000E000BF7B68012283F83D207B68002244
:101E1C0083F83C20FB7B18461037BD4680BD80B450
:101E2C0083B000AF786000BF0C37BD4680BC7047F4
:101E3C0080B483B000AF786000BF0C37BD4680BC67
:101E4C00704780B483B000AF786000BF0C37BD46DC
:101E5C0080BC704780B483B000AF786000BF0C3793
:101E6C00BD4680BC7047000080B485B000AF786080
:101E7C0039607B681B68FB607B682B4A934207D0F8
:101E8C007B68B3F1804F03D07B68284A934208D11A
:101E9C00FB6823F07003FB603B685B68FA681343D4
:101EAC00FB607B68204A934207D07B68B3F1804F7C
:101EBC0003D07B681D4A934208D1FB6823F440731E
:101ECC00FB603B68DB68FA681343FB60FB6823F03C
:101EDC0080023B685B691343FB607B68FA681A609D
:101EEC003B689A687B68DA623B681A687B689A621E
:101EFC007B680D4A934203D13B681A697B681A636D
:101F0C007B6801225A617B681B6903F00103002B7B
:101F1C0005D07B681B6923F001027B681A6100BF46
:101F2C001437BD4680BC7047002C014000040040B3
:101F3C0080B487B000AFF860B9607A60FB681B6A48
:101F4C007B61FB681B6A23F00102FB681A62FB6869
:101F5C009B693B613B6923F0F0033B617B681B0190
:101F6C003A6913433B617B6923F00A037B617A690D
:101F7C00BB6813437B61FB683A699A61FB687A69B9
:101F8C001A6200BF1C37BD4680BC704780B487B056
:101F9C0000AFF860B9607A60FB681B6A7B61FB6814
:101FAC001B6A23F01002FB681A62FB689B693B6199
:101FBC003B6923F470433B617B681B033A69134311
:101FCC003B617B6923F0A0037B61BB681B017A69D1
:101FDC0013437B61FB683A699A61FB687A691A6200
:101FEC0000BF1C37BD4680BC704780B485B000AFC5
:101FFC00786039607B689B68FB60FB6823F070033A
:10200C00FB603A68FB68134343F00703FB607B6893
:10201C00FA689A6000BF1437BD4680BC704780B424
:10202C0087B000AFF860B9607A603B60FB689B6872
:10203C007B617B6923F47F437B613B681A027B687D
:10204C001A43BB6813437A6913437B61FB687A6953
:10205C009A6000BF1C37BD4680BC704780B485B009
:10206C0000AF786039607B6893F83C30012B01D16C
:10207C00022341E07B68012283F83C207B6802222A
:10208C0083F83D207B681B685B68FB607B681B6882
:10209C009B68BB60FB6823F07003FB603B681B68AC
:1020AC00FA681343FB607B681B68FA685A607B68AC
:1020BC001B68144A934209D07B681B68B3F1804FAC
:1020CC0004D07B681B68104A93420CD1BB6823F088
:1020DC008003BB603B685B68BA681343BB607B687A
:1020EC001B68BA689A607B68012283F83D207B6884
:1020FC00002283F83C20002318461437BD4680BCD0
:10210C00704700BF002C01400004004080B483B035
:10211C0000AF786000BF0C37BD4680BC704780B400
:10212C0083B000AF786000BF0C37BD4680BC7047F1
:10213C0080B500AF084B1B68074A43F010031360CF
:10214C00032000F0E1FE0F2000F008F801F05AFB2C
:10215C000023184680BD00BF0020024080B582B02D
:10216C0000AF7860124B1A68124B1B7819464FF46B
:10217C007A73B3FBF1F3B2FBF3F3184600F0F9FEFC
:10218C000346002B01D001230EE07B680F2B0AD8ED
:10219C00002279684FF0FF3000F0C1FE064A7B68E0
:1021AC001360002300E0012318460837BD4680BDAC
:1021BC005C000020640000206000002080B400AFB0
:1021CC00054B1B781A46054B1B681344034A1360D6
:1021DC0000BFBD4680BC704764000020D0010020C9
:1021EC0080B400AF024B1B681846BD4680BC7047DC
:1021FC00D001002080B586B000AF78607B68002BE2
:10220C0001D1012372E27B681B6803F00103002BF0
:10221C0000F08780924B5B6803F00C03042B0CD00E
:10222C008F4B5B6803F00C03082B12D18C4B5B6853
:10223C0003F48033B3F5803F0BD1894B1B6803F457
:10224C000033002B6CD07B685B68002B68D10123BA
:10225C004CE27B685B68B3F5803F06D1804B1B6812
:10226C007F4A43F4803313602EE07B685B68002B5D
:10227C000CD17B4B1B687A4A23F480331360784B68
:10228C001B68774A23F4802313601DE07B685B682E
:10229C00B3F5A02F0CD1724B1B68714A43F4802309
:1022AC0013606F4B1B686E4A43F4803313600BE072
:1022BC006B4B1B686A4A23F480331360684B1B68B2
:1022CC00674A23F4802313607B685B68002B13D070
:1022DC00FFF786FF386108E0FFF782FF02463B6993
:1022EC00D31A642B01D9032300E25D4B1B6803F462
:1022FC000033002BF0D014E0FFF772FF386108E0D8
:10230C00FFF76EFF02463B69D31A642B01D90323F6
:10231C00ECE1534B1B6803F40033002BF0D100E0CD
:10232C0000BF7B681B6803F00203002B63D04C4B8F
:10233C005B6803F00C03002B0BD0494B5B6803F07C
:10234C000C03082B1CD1464B5B6803F48033002B29
:10235C0016D1434B1B6803F00203002B05D07B689E
:10236C001B69012B01D00123C0E13D4B1B6823F0FD
:10237C00F8027B685B69DB00394913430B603AE078
:10238C007B681B69002B20D0364B01221A60FFF7AB
:10239C0027FF386108E0FFF723FF02463B69D31A99
:1023AC00022B01D90323A1E12D4B1B6803F002037F
:1023BC00002BF0D02A4B1B6823F0F8027B685B697A
:1023CC00DB00274913430B6015E0264B00221A60F3
:1023DC00FFF706FF386108E0FFF702FF02463B6992
:1023EC00D31A022B01D9032380E11D4B1B6803F088
:1023FC000203002BF0D17B681B6803F00803002B51
:10240C003AD07B689B69002B19D0174B01221A60BC
:10241C00FFF7E6FE386108E0FFF7E2FE02463B6993
:10242C00D31A022B01D9032360E10D4B5B6A03F035
:10243C000203002BF0D0012000F0CEFA1CE00A4B76
:10244C0000221A60FFF7CCFE38610FE0FFF7C8FEE0
:10245C0002463B69D31A022B08D9032346E100BF7D
:10246C00001002400000424280044242924B5B6AE0
:10247C0003F00203002BE9D17B681B6803F0040313
:10248C00002B00F0A6800023FB758B4BDB6903F05F
:10249C008053002B0DD1884BDB69874A43F0805366
:1024AC00D361854BDB6903F08053BB60BB680123B0
:1024BC00FB75824B1B6803F48073002B18D17F4B88
:1024CC001B687E4A43F480731360FFF789FE386102
:1024DC0008E0FFF785FE02463B69D31A642B01D94D
:1024EC00032303E1754B1B6803F48073002BF0D0BE
:1024FC007B68DB68012B06D16F4B1B6A6E4A43F07D
:10250C00010313622DE07B68DB68002B0CD16A4B56
:10251C001B6A694A23F001031362674B1B6A664A04
:10252C0023F0040313621CE07B68DB68052B0CD1E1
:10253C00614B1B6A604A43F0040313625E4B1B6AD7
:10254C005D4A43F0010313620BE05B4B1B6A5A4A72
:10255C0023F001031362584B1B6A574A23F0040300
:10256C0013627B68DB68002B15D0FFF739FE3861EE
:10257C000AE0FFF735FE02463B69D31A41F2883276
:10258C00934201D90323B1E04B4B1B6A03F00203C6
:10259C00002BEED014E0FFF723FE38610AE0FFF7C2
:1025AC001FFE02463B69D31A41F28832934201D98D
:1025BC0003239BE0404B1B6A03F00203002BEED17C
:1025CC00FB7D012B05D13C4BDB693B4A23F080534F
:1025DC00D3617B68DB69002B00F08780364B5B682E
:1025EC0003F00C03082B61D07B68DB69022B46D10E
:1025FC00334B00221A60FFF7F3FD386108E0FFF758
:10260C00EFFD02463B69D31A022B01D903236DE07F
:10261C00294B1B6803F00073002BF0D17B681B6AFD
:10262C00B3F5803F08D1244B5B6823F400327B6800
:10263C009B68214913434B601F4B5B6823F4741256
:10264C007B68196A7B685B6A0B431B4913434B60BD
:10265C001B4B01221A60FFF7C3FD386108E0FFF73E
:10266C00BFFD02463B69D31A022B01D903233DE07F
:10267C00114B1B6803F00073002BF0D035E0104BAE
:10268C0000221A60FFF7ACFD386108E0FFF7A8FDE7
:10269C0002463B69D31A022B01D9032326E0064BD1
:1026AC001B6803F00073002BF0D11EE07B68DB6924
:1026BC00012B07D1012319E00010024000700040EB
:1026CC00600042420B4B5B68FB60FB6803F480329A
:1026DC007B681B6A9A4206D1FB6803F470127B6814
:1026EC005B6A9A4201D0012300E000231846183798
:1026FC00BD4680BD0010024080B584B000AF78604C
:10270C0039607B68002B01D10123D0E06A4B1B6838
:10271C0003F007033A689A4210D9674B1B6823F001
:10272C00070265493B6813430B60634B1B6803F05E
:10273C0007033A689A4201D00123B8E07B681B6812
:10274C0003F00203002B20D07B681B6803F004030A
:10275C00002B05D0594B5B68584A43F4E063536037
:10276C007B681B6803F00803002B05D0534B5B6898
:10277C00524A43F460535360504B5B6823F0F002B1
:10278C007B689B684D4913434B607B681B6803F067
:10279C000103002B40D07B685B68012B07D1474BB2
:1027AC001B6803F40033002B15D101237FE07B68F9
:1027BC005B68022B07D1414B1B6803F00073002BA5
:1027CC0009D1012373E03D4B1B6803F00203002B7E
:1027DC0001D101236BE0394B5B6823F003027B686A
:1027EC005B68364913434B60FFF7FAFCF8600AE06C
:1027FC00FFF7F6FC0246FB68D31A41F2883293428B
:10280C0001D9032353E02D4B5B6803F00C027B686A
:10281C005B689B009A42EBD1274B1B6803F00703C4
:10282C003A689A4210D2244B1B6823F007022249C3
:10283C003B6813430B60204B1B6803F007033A689B
:10284C009A4201D0012332E07B681B6803F0040339
:10285C00002B08D0194B5B6823F4E0627B68DB68C3
:10286C00164913434B607B681B6803F00803002B6D
:10287C0009D0124B5B6823F460527B681B69DB0048
:10288C000E4913434B6000F021F802460B4B5B687A
:10289C001B0903F00F030A49CB5C22FA03F3094A24
:1028AC001360094B1B681846FFF758FC00231846A9
:1028BC001037BD4680BD00BF002002400010024012
:1028CC00803E00085C0000206000002080B487B0CF
:1028DC0000AF0023FB600023BB6000237B6100235F
:1028EC007B6000233B611E4B5B68FB60FB6803F065
:1028FC000C03042B02D0082B03D027E0194B3B61AF
:10290C0027E0FB689B0C03F00F03174AD35C7B603A
:10291C00FB6803F48033002B10D0114B5B685B0C0D
:10292C0003F00103114AD35CBB607B680D4A03FBC7
:10293C0002F2BB68B2FBF3F37B6104E07B680C4AE8
:10294C0002FB03F37B617B693B6102E0054B3B615E
:10295C0000BF3B6918461C37BD4680BC704700BFA2
:10296C000010024000127A00983E0008A83E0008B1
:10297C0000093D0080B400AF024B1B681846BD46F1
:10298C0080BC70475C00002080B500AFFFF7F2FF01
:10299C000246054B5B681B0A03F007030349CB5C3B
:1029AC0022FA03F3184680BD00100240903E000846
:1029BC0080B500AFFFF7DEFF0246054B5B68DB0A14
:1029CC0003F007030349CB5C22FA03F3184680BDDE
:1029DC0000100240903E000880B485B000AF7860D3
:1029EC000A4B1B680A4AA2FB03235B0A7A6802FBA8
:1029FC0003F3FB6000BFFB685A1EFA60002BF9D191
:102A0C0000BF00BF1437BD4680BC70475C0000207F
:102A1C00D34D621080B48BB000AF78603960002366
:102A2C007B6200233B6261E101227B6A02FA03F3C1
:102A3C00FB613B681B68FA691340BB61BA69FB69AF
:102A4C009A4240F050813B685B68974A93425ED053
:102A5C00954A934275D8954A934258D0934A9342DB
:102A6C006FD8934A934252D0914A934269D8914A73
:102A7C0093424CD08F4A934263D88F4A934246D0AC
:102A8C008D4A93425DD8122B2AD8122B59D801A209
:102A9C0052F823F01B2B0008F52A0008072B00081E
:102AAC00492B00084F2B00084F2B00084F2B000818
:102ABC004F2B00084F2B00084F2B00084F2B000802
:102ACC004F2B00084F2B00084F2B00084F2B0008F2
:102ADC004F2B00084F2B0008FD2A0008112B000873
:102AEC00764A934213D02CE03B68DB683B6229E0CA
:102AFC003B68DB6804333B6224E03B68DB680833EB
:102B0C003B621FE03B68DB680C333B621AE03B68BE
:102B1C009B68002B02D104233B6213E03B689B684B
:102B2C00012B05D108233B627B68FA691A6109E025
:102B3C0008233B627B68FA695A6103E000233B621D
:102B4C0000E000BFBB69FF2B01D87B6801E07B680C
:102B5C0004337B61BB69FF2B02D87B6A9B0002E0CC
:102B6C007B6A083B9B003B617B691A680F213B69C0
:102B7C0001FA03F3DB431A40396A3B6901FA03F3A8
:102B8C001A437B691A603B685B6803F08053002B27
:102B9C0000F0A9804A4B9B69494A43F001039361B9
:102BAC00474B9B6903F00103BB60BB68454A7B6ADA
:102BBC009B08023352F82330FB607B6A03F003035B
:102BCC009B000F2202FA03F3DB43FA681340FB600D
:102BDC007B683D4A93420DD07B683C4A934207D0B8
:102BEC007B683B4A934201D1022304E0032302E0B9
:102BFC00012300E000237A6A02F003029200934062
:102C0C00FA681343FB602F497B6A9B080233FA680E
:102C1C0041F823203B685B6803F48013002B06D03B
:102C2C002C4B9A682B49BB6913438B6006E0294BEC
:102C3C009A68BB69DB43274913408B603B685B6830
:102C4C0003F40013002B06D0224BDA682149BB6930
:102C5C001343CB6006E01F4BDA68BB69DB431D49AD
:102C6C001340CB603B685B6803F40033002B06D049
:102C7C00184B5A681749BB6913434B6006E0154B58
:102C8C005A68BB69DB43134913404B603B685B6874
:102C9C0003F48033002B1FD00E4B1A680D49BB690F
:102CAC0013430B601FE000BF000032100000311016
:102CBC000000221000002110000012100000111062
:102CCC00001002400000014000080140000C0140CF
:102CDC0000100140000401400B4B1A68BB69DB4338
:102CEC00094913400B607B6A01337B623B681A68AD
:102CFC007B6A22FA03F3002B7FF496AE00BF00BF71
:102D0C002C37BD4680BC70470004014080B483B0B2
:102D1C0000AF78600B467B8013467B707B78002B72
:102D2C0003D07A887B681A6103E07B881A047B687D
:102D3C001A6100BF0C37BD4680BC704780B485B0AB
:102D4C0000AF78600B467B807B68DB68FB607A8821
:102D5C00FB6813401A04FB68D9437B880B401A4369
:102D6C007B681A6100BF1437BD4680BC70470000F9
:102D7C0080B485B000AF78607B6803F00703FB601C
:102D8C000C4BDB68BB60BA684FF6FF031340BB60AB
:102D9C00FB681A02BB68134343F0BF6343F4003370
:102DAC00BB60044ABB68D36000BF1437BD4680BC0F
:102DBC00704700BF00ED00E080B400AF044BDB684F
:102DCC001B0A03F007031846BD4680BC704700BFC2
:102DDC0000ED00E080B483B000AF0346FB7197F9BF
:102DEC000730002B0BDBFB7903F01F02064997F928
:102DFC0007305B09012000FA02F241F8232000BFE2
:102E0C000C37BD4680BC704700E100E080B483B055
:102E1C0000AF03463960FB7197F90730002B0ADBD2
:102E2C003B68DAB20C4997F907301201D2B20B4465
:102E3C0083F800230AE03B68DAB20849FB7903F017
:102E4C000F03043B1201D2B20B441A7600BF0C37AD
:102E5C00BD4680BC704700BF00E100E000ED00E023
:102E6C0080B489B000AFF860B9607A60FB6803F099
:102E7C000703FB61FB69C3F10703042B28BF042381
:102E8C00BB61FB690433062B02D9FB69033B00E0F1
:102E9C0000237B614FF0FF32BB6902FA03F3DA4384
:102EAC00BB681A407B699A404FF0FF317B6901FA8D
:102EBC0003F3D9437B680B40134318462437BD46B4
:102ECC0080BC704780B582B000AF78607B68013BF6
:102EDC00B3F1807F01D301230FE00A4A7B68013BE9
:102EEC0053600F214FF0FF30FFF790FF054B00228E
:102EFC009A60044B07221A60002318460837BD4617
:102F0C0080BD00BF10E000E080B582B000AF7860FB
:102F1C007868FFF72DFF00BF0837BD4680BD80B530
:102F2C0086B000AF0346B9607A60FB7300237B6107
:102F3C00FFF742FF78617A68B9687869FFF790FF0C
:102F4C00024697F90F3011461846FFF75FFF00BF96
:102F5C001837BD4680BD80B582B000AF0346FB710B
:102F6C0097F907301846FFF735FF00BF0837BD4605
:102F7C0080BD80B582B000AF78607868FFF7A2FFA3
:102F8C00034618460837BD4680BD80B582B000AFF9
:102F9C0078607B68002B01D1012342E07B6893F8B9
:102FAC004130DBB2002B06D17B68002283F8402035
:102FBC00786800F07DFC7B68242283F841207B68D4
:102FCC001B68DA687B681B6822F40052DA60786848
:102FDC0000F072F97B681B681A697B681B6822F425
:102FEC0090421A617B681B685A697B681B6822F0E7
:102FFC002A025A617B681B68DA687B681B6842F49A
:10300C000052DA607B6800225A647B68202283F8C5
:10301C0041207B68202283F842207B6800225A637F
:10302C00002318460837BD4680BD80B58AB002AF74
:10303C00F860B9603B601346FB8000237B61FB6842
:10304C0093F84130DBB2202B75D1BB68002B02D03A
:10305C00FB88002B01D101236EE0FB6800225A642F
:10306C00FB68212283F84120FFF7BAF87861FB68EE
:10307C00FA889A84FB68FA88DA84FB689B68B3F553
:10308C00805F08D1FB681B69002B04D10023FB6116
:10309C00BB68BB6103E0BB68FB610023BB612EE036
:1030AC003B6800937B6900228021F86800F048F8A7
:1030BC000346002B05D0FB68202283F84120032314
:1030CC003AE0FB69002B0BD1BB691B881A46FB68E5
:1030DC001B68C2F308025A60BB690233BB6107E08C
:1030EC00FB691A78FB681B685A60FB690133FB614A
:1030FC00FB68DB8C9BB2013B9AB2FB68DA84FB6801
:10310C00DB8C9BB2002BCBD13B6800937B690022FC
:10311C004021F86800F014F80346002B05D0FB683A
:10312C00202283F84120032306E0FB68202283F849
:10313C004120002300E0022318462037BD4680BD05
:10314C0080B586B000AFF860B9603B601346FB7188
:10315C003BE03B6AB3F1FF3F37D0FFF741F8024643
:10316C003B68D31A3A6A9A4202D33B6A002B01D1CC
:10317C0003233AE0FB681B68DB6803F00403002BB5
:10318C0023D0BB68802B20D0BB68402B1DD0FB68A4
:10319C001B681B6803F00803082B16D100237B6106
:1031AC00FB681B681B687B61FB681B685B687B6149
:1031BC007B69F86800F01DF8FB6808225A64FB680C
:1031CC00002283F8402001230FE0FB681B681A687B
:1031DC00BB681340BA689A420CBF01230023DBB2D0
:1031EC001A46FB799A42B4D0002318461837BD46CC
:1031FC0080BD80B495B000AF78607B681B680C33E1
:10320C007B637B6B53E8003F3B633B6B23F4907316
:10321C00FB647B681B680C33FA6C3A64FB63F96BD8
:10322C003A6C41E80023BB63BB6B002BE5D17B6898
:10323C001B6814333B623B6A53E8003FFB61FB693C
:10324C0023F00103BB647B681B681433BA6CFA620D
:10325C00BB62B96AFA6A41E800237B627B6A002B85
:10326C00E5D17B681B6B012B19D17B681B680C3378
:10327C00FB60FB6853E8003FBB60BB6823F01003A6
:10328C007B647B681B680C337A6CBA617B617969EF
:10329C00BA6941E800233B613B69002BE5D17B68AF
:1032AC00202283F842207B6800221A6300BF543727
:1032BC00BD4680BC7047000080B584B000AF78601C
:1032CC007B681B681B6923F440517B68DA687B6858
:1032DC001B680A431A617B689A687B681B691A43EE
:1032EC007B685B691343BB607B681B68DB6823F4FA
:1032FC00B05323F00C037A681268B9680B43D3609F
:10330C007B681B685B6923F440717B689A697B68F6
:10331C001B680A435A617B681B682C4A934203D191
:10332C00FFF746FBF86002E0FFF72EFBF860FA6847
:10333C0013469B0013449A001A447B685B689B00FD
:10334C00B2FBF3F3224AA2FB03235B091901FA68CF
:10335C0013469B0013449A001A447B685B689B00DD
:10336C00B2FBF3F21A4BA3FB02035B09642000FBD4
:10337C0003F3D31A1B013233154AA2FB03235B0957
:10338C0003F0F0031944FA6813469B0013449A00A7
:10339C001A447B685B689B00B2FBF3F20C4BA3FBFB
:1033AC0002035B09642000FB03F3D31A1B013233C5
:1033BC00074AA2FB03235B0903F00F027B681B681F
:1033CC000A449A6000BF1037BD4680BD00380140EA
:1033DC001F85EB5180B584B000AFF860B9607A609E
:1033EC007B689AB24FF0FF33B9680448FFF71DFEB3
:1033FC007B6818461037BD4680BD00BF1C020020FC
:10340C0080B500AFFEF7ECFE0346034AA2FB032394
:10341C00DB08184680BD00BFCDCCCCCC80B500AF4E
:10342C0001210248FFF78AFC00BF80BD0008014063
:10343C0080B500AF02210248FFF780FC00BF80BDC1
:10344C000008014080B500AF04210248FFF776FC6C
:10345C0000BF80BD0008014080B500AF08210248C4
:10346C00FFF76CFC00BF80BD0008014080B500AFC9
:10347C0010210248FFF762FC00BF80BD000801402C
:10348C0080B500AF20210648FFF758FCFFF7B8FFC6
:10349C00034619460348FCF705FF00BF80BD00BF7B
:1034AC0000080140203E000880B500AF01224021F9
:1034BC000548FFF72BFCFFF7A3FF0346194603480B
:1034CC00FCF7F0FE00BF80BD00080140383E00084C
:1034DC0080B500AF012280210548FFF717FCFFF7EC
:1034EC008FFF034619460348FCF7DCFE00BF80BD86
:1034FC00000801405C3E000880B500AFFEF718FEE6
:10350C0000F046F800F0F6F800F07EF800F0C8F88D
:10351C0000F0C4FA32220021154800F0E7FA6422C8
:10352C000A21144800F0E2FA96221421124800F005
:10353C00DDFAC8221E21114800F0D8FAFA222821FF
:10354C000F4800F0D3FA012200210E4800F0CEFA09
:10355C0000224FF496710C4800F0C8FA00224FF488
:10356C00FA710A4800F0C2FA00F010FBFCE700BF49
:10357C00293400083D340008513400086534000833
:10358C00793400088D340008B5340008DD340008A7
:10359C0080B590B000AF07F118032822002118461F
:1035AC00FCF71AFE3B1D00221A605A609A60DA6022
:1035BC001A610223BB610123BB621023FB6200234F
:1035CC007B6307F118031846FEF714FE0346002B25
:1035DC0001D000F0DAF80F237B600023BB600023DE
:1035EC00FB6000233B6100237B613B1D00211846DF
:1035FC00FFF782F80346002B01D000F0C6F800BF9D
:10360C004037BD4680BD000080B586B000AF07F1E5
:10361C00080300221A605A609A60DA603B46002266
:10362C001A605A601D4B4FF080421A601B4B41F6DA
:10363C003F725A60194B00229A60184B0922DA60CB
:10364C00164B00221A61154B00229A611348FEF7A3
:10365C0093F90346002B01D000F097F84FF48053F8
:10366C00BB6007F1080319460C48FEF711FB034633
:10367C00002B01D000F089F800233B6000237B6015
:10368C003B4619460548FEF7E9FC0346002B01D0E2
:10369C0000F07BF800BF1837BD4680BDD401002078
:1036AC0080B500AF114B124A1A60104B4FF4E13247
:1036BC005A600E4B00229A600C4B0022DA600B4BC6
:1036CC0000221A61094B0C225A61084B00229A61A4
:1036DC00064B0022DA610548FFF757FC0346002B26
:1036EC0001D000F052F800BF80BD00BF1C020020CA
:1036FC000038014080B586B000AF07F10803002206
:10370C001A605A609A60DA60114B9B69104A43F058
:10371C00040393610E4B9B6903F004037B607B688D
:10372C000022FF210B48FFF7F1FAFF23BB600123B6
:10373C00FB6000233B6102237B6107F10803194600
:10374C000448FFF767F900BF1837BD4680BD00BFBE
:10375C00001002400008014080B500AF0248FEF79F
:10376C005BF900BF80BD00BFD401002080B582B0E2
:10377C0000AF78607B681B68B3F1804F01D100F01B
:10378C00A7F900BF0837BD4680BD80B400AF72B644
:10379C0000BF00BFFDE780B400AF00BFFDE780B401
:1037AC0000AF00BFFDE780B400AF00BFFDE780B401
:1037BC0000AF00BFFDE780B400AF00BFFDE780B4F1
:1037CC0000AF00BFBD4680BC704780B400AF00BFE7
:1037DC00BD4680BC704780B400AF00BFBD4680BC06
:1037EC00704780B500AFFEF7E9FC00BF80BD00005C
:1037FC0080B500AF0248FEF75BF900BF80BD00BF8B
:10380C00D401002080B485B000AF154B9B69144ADD
:10381C0043F001039361124B9B6903F00103BB60FE
:10382C00BB680F4BDB690E4A43F08053D3610C4BE2
:10383C00DB6903F080537B607B680A4B5B68FB6041
:10384C00FB6823F0E063FB60FB6843F08063FB6084
:10385C00044AFB68536000BF1437BD4680BC7047F8
:10386C00001002400000014080B584B000AF7860C9
:10387C007B681B68B3F1804F13D10C4BDB690B4A8F
:10388C0043F00103D361094BDB6903F00103FB60D7
:10389C00FB68002200211C20FFF741FB1C20FFF7D6
:1038AC005AFB00BF1037BD4680BD00BF0010024060
:1038BC0080B588B000AF786007F1100300221A6061
:1038CC005A609A60DA607B681B681C4A934231D15B
:1038DC001B4B9B691A4A43F480439361184B9B69B9
:1038EC0003F48043FB60FB68154B9B69144A43F05F
:1038FC0004039361124B9B6903F00403BB60BB6828
:10390C004FF400733B6102237B610323FB6107F1DE
:10391C00100319460B48FFF77DF84FF480633B61A9
:10392C0000237B610023BB6107F110031946054896
:10393C00FFF770F800BF2037BD4680BD003801404E
:10394C00001002400008014080B586B000AF7860DE
:10395C00144A154BD31A7B617B693B61134B1B6873
:10396C00002B02D1114B124A1A60104B1A687B685B
:10397C0013443A699A4207D2FCF77EFC03460C22A8
:10398C001A604FF0FF3309E0084B1B68FB60074BD4
:10399C001A687B681344054A1360FB68184618378D
:1039AC00BD4680BD002800200004000064020020F9
:1039BC00F804002080B586B000AFF860B9607A607A
:1039CC0000237B610AE0AFF300800146BB685A1C00
:1039DC00BA60CAB21A707B6901337B617A697B6801
:1039EC009A42F0DB7B6818461837BD4680BD80B420
:1039FC0083B000AF78604FF0FF3318460C37BD46EC
:103A0C0080BC704780B483B000AF786039603B688D
:103A1C004FF400525A60002318460C37BD4680BC48
:103A2C00704780B483B000AF7860012318460C3720
:103A3C00BD4680BC704780B485B000AFF860B960FB
:103A4C007A60002318461437BD4680BC70470000CE
:103A5C00FDF78CFF0B480C490C4A002302E0D458AC
:103A6C00C4500433C4188C42F9D3094A094C0023BE
:103A7C0001E013600432A242FBD3FCF785FBFFF795
:103A8C003BFD7047000000206C000020F83E000851
:103A9C006C000020F4040020FEE7000080B500AFAD
:103AAC00074B00221A60074B00221A60064B0122BA
:103ABC001A60064B00221A70FFF74EFE00BF80BD45
:103ACC00F0040020EC04002068000020E804002032
:103ADC0080B400AF044B1B680133034A136000BF72
:103AEC00BD4680BC704700BFEC04002080B588B098
:103AFC0000AFF860B9607A601F4B1B68272B04D9A4
:103B0C001E4B03221A70002331E01D4B1B685A1CFC
:103B1C001B490A60FB611B4B1B68BA681344BB61F1
:103B2C00154B1B687B61184A7B691B011344FA68AF
:103B3C001A60154A7B691B01134404337A681A60B6
:103B4C00114A7B691B0113440833BA691A600E4A87
:103B5C007B691B0113440C33FA691A60064B1B6812
:103B6C000133054A1360786900F0E6F8FB691846E2
:103B7C002037BD4680BD00BFF0040020E8040020C3
:103B8C0068000020EC0400206802002090B587B08B
:103B9C0000AF40E0294B3C1D0FCB84E80F00284BB5
:103BAC001B68013B2549254A1B0113440C460FCBCE
:103BBC0084E80F00224B1B68013B214A1360204B09
:103BCC001B68002B02D0002000F0DCF87B689847C3
:103BDC00BB68002B1FD01A4B1B68272B18D8FA6810
:103BEC00BB681344FB60164B1B687B61134A7B69F3
:103BFC001B0113441C463B1D0FCB84E80F00104BDC
:103C0C001B6801330E4A1360786900F095F802E0E6
:103C1C000C4B03221A700A4B1B68002B05D0074B68
:103C2C009A68094B1B689A42B4D900F00FF800F05F
:103C3C0013F800BF1C37BD4690BD00BF68020020C2
:103C4C00F0040020E8040020EC04002080B400AF55
:103C5C0000BFBD4680BC704780B400AF00BFBD46FE
:103C6C0080BC704790B486B000AF78603960124A5F
:103C7C007B681B01134407F108040FCB84E80F0089
:103C8C000D4A7B681B01D1180B4A3B681B0113447E
:103C9C000C460FCB84E80F00074A3B681B0113440A
:103CAC001C4607F108030FCB84E80F0000BF183740
:103CBC00BD4690BC704700BF6802002080B483B042
:103CCC0000AF786039601B4A7B681B0113440833D2
:103CDC001A6818493B681B010B4408331B689A424D
:103CEC0001D2012320E0134A7B681B0113440833E3
:103CFC001A6810493B681B010B4408331B689A4235
:103D0C0001D9002310E00B4A7B681B0113440C33D0
:103D1C001A6808493B681B010B440C331B689A4218
:103D2C0034BF01230023DBB218460C37BD4680BCE0
:103D3C00704700BF6802002080B584B000AF786087
:103D4C007B68002B19D07B68013B5B08FB6009E0AA
:103D5C00F9687868FFF786FFFB687B607B68013B3E
:103D6C005B08FB607B68002B08D0F9687868FFF76C
:103D7C00A5FF0346002BEBD100E000BF1037BD467A
:103D8C0080BD000080B586B000AF78607B687B6139
:103D9C007B685B0001333B617B6801335B00FB603C
:103DAC00154B1B683A699A4208D279693869FFF752
:103DBC0085FF0346002B01D03B697B610E4B1B68D2
:103DCC00FA689A4208D27969F868FFF777FF0346D8
:103DDC00002B01D0FB687B617A697B689A4206D024
:103DEC0079697868FFF73EFF7869FFF7CBFF00BF72
:103DFC001837BD4680BD00BFF0040020F8B500BFE9
:103E0C00F8BC08BC9E467047F8B500BFF8BC08BCAF
:043E1C009E46704707
:103E200031306D73205461736B212054696D653A94
:103E300020256C750D0A00004F6E652D53686F7458
:103E40002031204669726564212054696D65737460
:103E5000616D703A20256C750D0A00004F6E652D5E
:103E600053686F742032204669726564212054695A
:103E70006D657374616D703A20256C750D0A0000D4
:103E8000000000000000000001020304060708090A
:103E900000000000010203040203040506070809EC
:103EA0000A0B0C0D0E0F101001020000232D302BF9
:103EB00020000000686C4C006566674546470000BE
:103EC0003031323334353637383941424344454650
:103ED0000000000030313233343536373839616212
:083EE000636465660000000048
:083EE8002CD2FF7F0100000055
:043EF0007501000850
:043EF4004D01000874
:103EF800040000200000000088000020F0000020DE
:103F08005801002000000000000000000000000030
:103F18000000000000000000000000000000000099
:103F28000000000000000000000000000000000089
:103F38000000000000000000000000000000000079
:103F480000000000030000008800002000127A0032
:0C3F58001000000001000000010000004B
:0400000508003A5D58
:00000001FF
